{
  "_format": "hh-sol-artifact-1",
  "contractName": "Capsule",
  "sourceName": "contracts/Capsule.sol",
  "abi": [
    {
      "inputs": [],
      "stateMutability": "nonpayable",
      "type": "constructor"
    },
    {
      "inputs": [],
      "name": "PRICE",
      "outputs": [
        {
          "internalType": "uint256",
          "name": "",
          "type": "uint256"
        }
      ],
      "stateMutability": "view",
      "type": "function"
    },
    {
      "inputs": [],
      "name": "checkIn",
      "outputs": [],
      "stateMutability": "payable",
      "type": "function"
    },
    {
      "inputs": [],
      "name": "currentUser",
      "outputs": [
        {
          "internalType": "address",
          "name": "",
          "type": "address"
        }
      ],
      "stateMutability": "view",
      "type": "function"
    },
    {
      "inputs": [],
      "name": "lastUser",
      "outputs": [
        {
          "internalType": "address",
          "name": "",
          "type": "address"
        }
      ],
      "stateMutability": "view",
      "type": "function"
    },
    {
      "inputs": [],
      "name": "owner",
      "outputs": [
        {
          "internalType": "address",
          "name": "",
          "type": "address"
        }
      ],
      "stateMutability": "view",
      "type": "function"
    },
    {
      "inputs": [
        {
          "internalType": "uint8",
          "name": "stars",
          "type": "uint8"
        }
      ],
      "name": "rate",
      "outputs": [],
      "stateMutability": "nonpayable",
      "type": "function"
    },
    {
      "inputs": [],
      "name": "withdraw",
      "outputs": [],
      "stateMutability": "nonpayable",
      "type": "function"
    },
    {
      "stateMutability": "payable",
      "type": "receive"
    }
  ],
  "bytecode": "0x6080604052348015600f57600080fd5b50336000806101000a81548173ffffffffffffffffffffffffffffffffffffffff021916908373ffffffffffffffffffffffffffffffffffffffff16021790555033600160006101000a81548173ffffffffffffffffffffffffffffffffffffffff021916908373ffffffffffffffffffffffffffffffffffffffff1602179055506107a2806100a06000396000f3fe6080604052600436106100745760003560e01c80638d859f3e1161004e5780638d859f3e146100ca5780638da5cb5b146100f557806392ee033414610120578063b0b95fa21461014b5761007b565b8063183ff085146100805780633c04b5471461008a5780633ccfd60b146100b35761007b565b3661007b57005b600080fd5b610088610176565b005b34801561009657600080fd5b506100b160048036038101906100ac91906104fa565b610266565b005b3480156100bf57600080fd5b506100c8610349565b005b3480156100d657600080fd5b506100df610440565b6040516100ec9190610540565b60405180910390f35b34801561010157600080fd5b5061010a61044c565b604051610117919061059c565b60405180910390f35b34801561012c57600080fd5b50610135610470565b604051610142919061059c565b60405180910390f35b34801561015757600080fd5b50610160610496565b60405161016d919061059c565b60405180910390f35b670de0b6b3a764000034146101c0576040517f08c379a00000000000000000000000000000000000000000000000000000000081526004016101b790610614565b60405180910390fd5b600260009054906101000a900473ffffffffffffffffffffffffffffffffffffffff16600160006101000a81548173ffffffffffffffffffffffffffffffffffffffff021916908373ffffffffffffffffffffffffffffffffffffffff16021790555033600260006101000a81548173ffffffffffffffffffffffffffffffffffffffff021916908373ffffffffffffffffffffffffffffffffffffffff160217905550565b60018160ff161015801561027e575060058160ff1611155b6102bd576040517f08c379a00000000000000000000000000000000000000000000000000000000081526004016102b490610680565b60405180910390fd5b60048160ff161061034657600160009054906101000a900473ffffffffffffffffffffffffffffffffffffffff1673ffffffffffffffffffffffffffffffffffffffff166108fc600a670de0b6b3a764000061031991906106cf565b9081150290604051600060405180830381858888f19350505050158015610344573d6000803e3d6000fd5b505b50565b60008054906101000a900473ffffffffffffffffffffffffffffffffffffffff1673ffffffffffffffffffffffffffffffffffffffff163373ffffffffffffffffffffffffffffffffffffffff16146103d7576040517f08c379a00000000000000000000000000000000000000000000000000000000081526004016103ce9061074c565b60405180910390fd5b60008054906101000a900473ffffffffffffffffffffffffffffffffffffffff1673ffffffffffffffffffffffffffffffffffffffff166108fc479081150290604051600060405180830381858888f1935050505015801561043d573d6000803e3d6000fd5b50565b670de0b6b3a764000081565b60008054906101000a900473ffffffffffffffffffffffffffffffffffffffff1681565b600260009054906101000a900473ffffffffffffffffffffffffffffffffffffffff1681565b600160009054906101000a900473ffffffffffffffffffffffffffffffffffffffff1681565b600080fd5b600060ff82169050919050565b6104d7816104c1565b81146104e257600080fd5b50565b6000813590506104f4816104ce565b92915050565b6000602082840312156105105761050f6104bc565b5b600061051e848285016104e5565b91505092915050565b6000819050919050565b61053a81610527565b82525050565b60006020820190506105556000830184610531565b92915050565b600073ffffffffffffffffffffffffffffffffffffffff82169050919050565b60006105868261055b565b9050919050565b6105968161057b565b82525050565b60006020820190506105b1600083018461058d565b92915050565b600082825260208201905092915050565b7f4d757374207061792065786163746c7920312065746865720000000000000000600082015250565b60006105fe6018836105b7565b9150610609826105c8565b602082019050919050565b6000602082019050818103600083015261062d816105f1565b9050919050565b7f526174696e67206d75737420626520312d350000000000000000000000000000600082015250565b600061066a6012836105b7565b915061067582610634565b602082019050919050565b600060208201905081810360008301526106998161065d565b9050919050565b7f4e487b7100000000000000000000000000000000000000000000000000000000600052601260045260246000fd5b60006106da82610527565b91506106e583610527565b9250826106f5576106f46106a0565b5b828204905092915050565b7f4f6e6c79206f776e65722063616e207769746864726177000000000000000000600082015250565b60006107366017836105b7565b915061074182610700565b602082019050919050565b6000602082019050818103600083015261076581610729565b905091905056fea26469706673582212207ce4b99e59733946d37a4d372ad6941e902f59fe42e3add1f5b22f1210ac68af64736f6c634300081c0033",
  "linkReferences": {},
  "deployedLinkReferences": {}
}